{
  "_format": "hh-sol-artifact-1",
  "contractName": "Hero",
  "sourceName": "contracts/Hero.sol",
  "abi": [
    {
      "anonymous": false,
      "inputs": [
        {
          "indexed": false,
          "internalType": "uint256",
          "name": "hero",
          "type": "uint256"
        }
      ],
      "name": "heroCreated",
      "type": "event"
    },
    {
      "stateMutability": "nonpayable",
      "type": "fallback"
    },
    {
      "inputs": [
        {
          "internalType": "enum Hero.Class",
          "name": "class",
          "type": "uint8"
        }
      ],
      "name": "createHero",
      "outputs": [],
      "stateMutability": "payable",
      "type": "function"
    },
    {
      "inputs": [],
      "name": "generateRandom",
      "outputs": [
        {
          "internalType": "uint256",
          "name": "",
          "type": "uint256"
        }
      ],
      "stateMutability": "view",
      "type": "function"
    },
    {
      "inputs": [
        {
          "internalType": "uint256",
          "name": "hero",
          "type": "uint256"
        }
      ],
      "name": "getDex",
      "outputs": [
        {
          "internalType": "uint256",
          "name": "",
          "type": "uint256"
        }
      ],
      "stateMutability": "pure",
      "type": "function"
    },
    {
      "inputs": [
        {
          "internalType": "uint256",
          "name": "hero",
          "type": "uint256"
        }
      ],
      "name": "getHealth",
      "outputs": [
        {
          "internalType": "uint256",
          "name": "",
          "type": "uint256"
        }
      ],
      "stateMutability": "pure",
      "type": "function"
    },
    {
      "inputs": [
        {
          "internalType": "uint256",
          "name": "hero",
          "type": "uint256"
        }
      ],
      "name": "getHeroClass",
      "outputs": [
        {
          "internalType": "uint32",
          "name": "",
          "type": "uint32"
        }
      ],
      "stateMutability": "pure",
      "type": "function"
    },
    {
      "inputs": [],
      "name": "getHeroes",
      "outputs": [
        {
          "internalType": "uint256[]",
          "name": "",
          "type": "uint256[]"
        }
      ],
      "stateMutability": "view",
      "type": "function"
    },
    {
      "inputs": [
        {
          "internalType": "uint256",
          "name": "hero",
          "type": "uint256"
        }
      ],
      "name": "getIntelect",
      "outputs": [
        {
          "internalType": "uint256",
          "name": "",
          "type": "uint256"
        }
      ],
      "stateMutability": "pure",
      "type": "function"
    },
    {
      "inputs": [
        {
          "internalType": "uint256",
          "name": "hero",
          "type": "uint256"
        }
      ],
      "name": "getMagic",
      "outputs": [
        {
          "internalType": "uint32",
          "name": "",
          "type": "uint32"
        }
      ],
      "stateMutability": "pure",
      "type": "function"
    },
    {
      "inputs": [
        {
          "internalType": "uint256",
          "name": "hero",
          "type": "uint256"
        }
      ],
      "name": "getStrength",
      "outputs": [
        {
          "internalType": "uint256",
          "name": "",
          "type": "uint256"
        }
      ],
      "stateMutability": "pure",
      "type": "function"
    }
  ],
  "bytecode": "0x608060405234801561001057600080fd5b50610ae5806100206000396000f3fe60806040526004361061008a5760003560e01c80635e7e236d116100595780635e7e236d1461017c578063973d7e59146101985780639a8d2882146101d5578063b5f0f1b714610200578063e53fbda61461023d5761008b565b806302e4af011461009a57806322c0a577146100c55780633fc70f2c146101025780635bc0a6231461013f5761008b565b5b34801561009757600080fd5b50005b3480156100a657600080fd5b506100af61027a565b6040516100bc919061063e565b60405180910390f35b3480156100d157600080fd5b506100ec60048036038101906100e7919061068a565b6102ad565b6040516100f9919061063e565b60405180910390f35b34801561010e57600080fd5b506101296004803603810190610124919061068a565b6102be565b604051610136919061063e565b60405180910390f35b34801561014b57600080fd5b506101666004803603810190610161919061068a565b6102cf565b60405161017391906106d6565b60405180910390f35b61019660048036038101906101919190610716565b6102e0565b005b3480156101a457600080fd5b506101bf60048036038101906101ba919061068a565b610562565b6040516101cc91906106d6565b60405180910390f35b3480156101e157600080fd5b506101ea61056f565b6040516101f79190610801565b60405180910390f35b34801561020c57600080fd5b506102276004803603810190610222919061068a565b610603565b604051610234919061063e565b60405180910390f35b34801561024957600080fd5b50610264600480360381019061025f919061068a565b610614565b604051610271919061063e565b60405180910390f35b6000444260405160200161028f929190610844565b6040516020818303038152906040528051906020012060001c905090565b6000601f601183901c169050919050565b6000601f600783901c169050919050565b60006015601683901c169050919050565b66b1a2bc2ec5000034101561032a576040517f08c379a0000000000000000000000000000000000000000000000000000000008152600401610321906108f3565b60405180910390fd5b6000600567ffffffffffffffff81111561034757610346610913565b5b6040519080825280602002602001820160405280156103755781602001602082028036833780820191505090505b50905060028160008151811061038e5761038d610942565b5b6020026020010181815250506007816001815181106103b0576103af610942565b5b602002602001018181525050600c816002815181106103d2576103d1610942565b5b6020026020010181815250506011816003815181106103f4576103f3610942565b5b60200260200101818152505060168160048151811061041657610415610942565b5b602002602001018181525050600060059050600083600381111561043d5761043c610971565b5b90505b60008261044b61027a565b61045591906109cf565b90506000600184600d6104689190610a2f565b61047061027a565b61047a91906109cf565b6104849190610a2f565b9050838061049190610a85565b9450508482815181106104a7576104a6610942565b5b602002602001015181901b83179250505060008211610440576000803373ffffffffffffffffffffffffffffffffffffffff1673ffffffffffffffffffffffffffffffffffffffff1681526020019081526020016000208190806001815401808255809150506001900390600052602060002001600090919091909150557fb424650af373549ca2357c928411647be77aa5fe15b14172526ac1f84d18ff3b81604051610554919061063e565b60405180910390a150505050565b6000600282169050919050565b60606000803373ffffffffffffffffffffffffffffffffffffffff1673ffffffffffffffffffffffffffffffffffffffff1681526020019081526020016000208054806020026020016040519081016040528092919081815260200182805480156105f957602002820191906000526020600020905b8154815260200190600101908083116105e5575b5050505050905090565b6000601f600c83901c169050919050565b6000601f600283901c169050919050565b6000819050919050565b61063881610625565b82525050565b6000602082019050610653600083018461062f565b92915050565b600080fd5b61066781610625565b811461067257600080fd5b50565b6000813590506106848161065e565b92915050565b6000602082840312156106a05761069f610659565b5b60006106ae84828501610675565b91505092915050565b600063ffffffff82169050919050565b6106d0816106b7565b82525050565b60006020820190506106eb60008301846106c7565b92915050565b600481106106fe57600080fd5b50565b600081359050610710816106f1565b92915050565b60006020828403121561072c5761072b610659565b5b600061073a84828501610701565b91505092915050565b600081519050919050565b600082825260208201905092915050565b6000819050602082019050919050565b61077881610625565b82525050565b600061078a838361076f565b60208301905092915050565b6000602082019050919050565b60006107ae82610743565b6107b8818561074e565b93506107c38361075f565b8060005b838110156107f45781516107db888261077e565b97506107e683610796565b9250506001810190506107c7565b5085935050505092915050565b6000602082019050818103600083015261081b81846107a3565b905092915050565b6000819050919050565b61083e61083982610625565b610823565b82525050565b6000610850828561082d565b602082019150610860828461082d565b6020820191508190509392505050565b600082825260208201905092915050565b7f596f75206e65656420746f2073656e64206174206c6561737420302e3035207460008201527f6f206372656174652061206865726f0000000000000000000000000000000000602082015250565b60006108dd602f83610870565b91506108e882610881565b604082019050919050565b6000602082019050818103600083015261090c816108d0565b9050919050565b7f4e487b7100000000000000000000000000000000000000000000000000000000600052604160045260246000fd5b7f4e487b7100000000000000000000000000000000000000000000000000000000600052603260045260246000fd5b7f4e487b7100000000000000000000000000000000000000000000000000000000600052602160045260246000fd5b7f4e487b7100000000000000000000000000000000000000000000000000000000600052601260045260246000fd5b60006109da82610625565b91506109e583610625565b9250826109f5576109f46109a0565b5b828206905092915050565b7f4e487b7100000000000000000000000000000000000000000000000000000000600052601160045260246000fd5b6000610a3a82610625565b9150610a4583610625565b9250827fffffffffffffffffffffffffffffffffffffffffffffffffffffffffffffffff03821115610a7a57610a79610a00565b5b828201905092915050565b6000610a9082610625565b91506000821415610aa457610aa3610a00565b5b60018203905091905056fea26469706673582212205f3343bae6aa86679bb5592e98b9f2828f95826963a2a55ae829a41e15abafd964736f6c634300080a0033",
  "linkReferences": {},
  "deployedLinkReferences": {}
}