{
  "_format": "hh-sol-artifact-1",
  "contractName": "TestHero",
  "sourceName": "contracts/testHero.sol",
  "abi": [
    {
      "anonymous": false,
      "inputs": [
        {
          "indexed": false,
          "internalType": "uint256",
          "name": "hero",
          "type": "uint256"
        }
      ],
      "name": "heroCreated",
      "type": "event"
    },
    {
      "stateMutability": "nonpayable",
      "type": "fallback"
    },
    {
      "inputs": [
        {
          "internalType": "enum Hero.Class",
          "name": "class",
          "type": "uint8"
        }
      ],
      "name": "createHero",
      "outputs": [],
      "stateMutability": "payable",
      "type": "function"
    },
    {
      "inputs": [],
      "name": "generateRandom",
      "outputs": [
        {
          "internalType": "uint256",
          "name": "",
          "type": "uint256"
        }
      ],
      "stateMutability": "view",
      "type": "function"
    },
    {
      "inputs": [
        {
          "internalType": "uint256",
          "name": "hero",
          "type": "uint256"
        }
      ],
      "name": "getDex",
      "outputs": [
        {
          "internalType": "uint256",
          "name": "",
          "type": "uint256"
        }
      ],
      "stateMutability": "pure",
      "type": "function"
    },
    {
      "inputs": [
        {
          "internalType": "uint256",
          "name": "hero",
          "type": "uint256"
        }
      ],
      "name": "getHealth",
      "outputs": [
        {
          "internalType": "uint256",
          "name": "",
          "type": "uint256"
        }
      ],
      "stateMutability": "pure",
      "type": "function"
    },
    {
      "inputs": [
        {
          "internalType": "uint256",
          "name": "hero",
          "type": "uint256"
        }
      ],
      "name": "getHeroClass",
      "outputs": [
        {
          "internalType": "uint32",
          "name": "",
          "type": "uint32"
        }
      ],
      "stateMutability": "pure",
      "type": "function"
    },
    {
      "inputs": [],
      "name": "getHeroes",
      "outputs": [
        {
          "internalType": "uint256[]",
          "name": "",
          "type": "uint256[]"
        }
      ],
      "stateMutability": "view",
      "type": "function"
    },
    {
      "inputs": [
        {
          "internalType": "uint256",
          "name": "hero",
          "type": "uint256"
        }
      ],
      "name": "getIntelect",
      "outputs": [
        {
          "internalType": "uint256",
          "name": "",
          "type": "uint256"
        }
      ],
      "stateMutability": "pure",
      "type": "function"
    },
    {
      "inputs": [
        {
          "internalType": "uint256",
          "name": "hero",
          "type": "uint256"
        }
      ],
      "name": "getMagic",
      "outputs": [
        {
          "internalType": "uint32",
          "name": "",
          "type": "uint32"
        }
      ],
      "stateMutability": "pure",
      "type": "function"
    },
    {
      "inputs": [
        {
          "internalType": "uint256",
          "name": "hero",
          "type": "uint256"
        }
      ],
      "name": "getStrength",
      "outputs": [
        {
          "internalType": "uint256",
          "name": "",
          "type": "uint256"
        }
      ],
      "stateMutability": "pure",
      "type": "function"
    },
    {
      "inputs": [
        {
          "internalType": "uint256",
          "name": "r",
          "type": "uint256"
        }
      ],
      "name": "setRandom",
      "outputs": [],
      "stateMutability": "nonpayable",
      "type": "function"
    }
  ],
  "bytecode": "0x608060405234801561001057600080fd5b50610aad806100206000396000f3fe6080604052600436106100955760003560e01c8063729e7cf611610059578063729e7cf6146101a3578063973d7e59146101cc5780639a8d288214610209578063b5f0f1b714610234578063e53fbda61461027157610096565b806302e4af01146100a557806322c0a577146100d05780633fc70f2c1461010d5780635bc0a6231461014a5780635e7e236d1461018757610096565b5b3480156100a257600080fd5b50005b3480156100b157600080fd5b506100ba6102ae565b6040516100c79190610653565b60405180910390f35b3480156100dc57600080fd5b506100f760048036038101906100f2919061069f565b6102b8565b6040516101049190610653565b60405180910390f35b34801561011957600080fd5b50610134600480360381019061012f919061069f565b6102c9565b6040516101419190610653565b60405180910390f35b34801561015657600080fd5b50610171600480360381019061016c919061069f565b6102da565b60405161017e91906106eb565b60405180910390f35b6101a1600480360381019061019c919061072b565b6102eb565b005b3480156101af57600080fd5b506101ca60048036038101906101c5919061069f565b61056d565b005b3480156101d857600080fd5b506101f360048036038101906101ee919061069f565b610577565b60405161020091906106eb565b60405180910390f35b34801561021557600080fd5b5061021e610584565b60405161022b9190610816565b60405180910390f35b34801561024057600080fd5b5061025b6004803603810190610256919061069f565b610618565b6040516102689190610653565b60405180910390f35b34801561027d57600080fd5b506102986004803603810190610293919061069f565b610629565b6040516102a59190610653565b60405180910390f35b6000600154905090565b6000601f601183901c169050919050565b6000601f600783901c169050919050565b60006015601683901c169050919050565b66b1a2bc2ec50000341015610335576040517f08c379a000000000000000000000000000000000000000000000000000000000815260040161032c906108bb565b60405180910390fd5b6000600567ffffffffffffffff811115610352576103516108db565b5b6040519080825280602002602001820160405280156103805781602001602082028036833780820191505090505b5090506002816000815181106103995761039861090a565b5b6020026020010181815250506007816001815181106103bb576103ba61090a565b5b602002602001018181525050600c816002815181106103dd576103dc61090a565b5b6020026020010181815250506011816003815181106103ff576103fe61090a565b5b6020026020010181815250506016816004815181106104215761042061090a565b5b602002602001018181525050600060059050600083600381111561044857610447610939565b5b90505b6000826104566102ae565b6104609190610997565b90506000600184600d61047391906109f7565b61047b6102ae565b6104859190610997565b61048f91906109f7565b9050838061049c90610a4d565b9450508482815181106104b2576104b161090a565b5b602002602001015181901b8317925050506000821161044b576000803373ffffffffffffffffffffffffffffffffffffffff1673ffffffffffffffffffffffffffffffffffffffff1681526020019081526020016000208190806001815401808255809150506001900390600052602060002001600090919091909150557fb424650af373549ca2357c928411647be77aa5fe15b14172526ac1f84d18ff3b8160405161055f9190610653565b60405180910390a150505050565b8060018190555050565b6000600282169050919050565b60606000803373ffffffffffffffffffffffffffffffffffffffff1673ffffffffffffffffffffffffffffffffffffffff16815260200190815260200160002080548060200260200160405190810160405280929190818152602001828054801561060e57602002820191906000526020600020905b8154815260200190600101908083116105fa575b5050505050905090565b6000601f600c83901c169050919050565b6000601f600283901c169050919050565b6000819050919050565b61064d8161063a565b82525050565b60006020820190506106686000830184610644565b92915050565b600080fd5b61067c8161063a565b811461068757600080fd5b50565b60008135905061069981610673565b92915050565b6000602082840312156106b5576106b461066e565b5b60006106c38482850161068a565b91505092915050565b600063ffffffff82169050919050565b6106e5816106cc565b82525050565b600060208201905061070060008301846106dc565b92915050565b6004811061071357600080fd5b50565b60008135905061072581610706565b92915050565b6000602082840312156107415761074061066e565b5b600061074f84828501610716565b91505092915050565b600081519050919050565b600082825260208201905092915050565b6000819050602082019050919050565b61078d8161063a565b82525050565b600061079f8383610784565b60208301905092915050565b6000602082019050919050565b60006107c382610758565b6107cd8185610763565b93506107d883610774565b8060005b838110156108095781516107f08882610793565b97506107fb836107ab565b9250506001810190506107dc565b5085935050505092915050565b6000602082019050818103600083015261083081846107b8565b905092915050565b600082825260208201905092915050565b7f596f75206e65656420746f2073656e64206174206c6561737420302e3035207460008201527f6f206372656174652061206865726f0000000000000000000000000000000000602082015250565b60006108a5602f83610838565b91506108b082610849565b604082019050919050565b600060208201905081810360008301526108d481610898565b9050919050565b7f4e487b7100000000000000000000000000000000000000000000000000000000600052604160045260246000fd5b7f4e487b7100000000000000000000000000000000000000000000000000000000600052603260045260246000fd5b7f4e487b7100000000000000000000000000000000000000000000000000000000600052602160045260246000fd5b7f4e487b7100000000000000000000000000000000000000000000000000000000600052601260045260246000fd5b60006109a28261063a565b91506109ad8361063a565b9250826109bd576109bc610968565b5b828206905092915050565b7f4e487b7100000000000000000000000000000000000000000000000000000000600052601160045260246000fd5b6000610a028261063a565b9150610a0d8361063a565b9250827fffffffffffffffffffffffffffffffffffffffffffffffffffffffffffffffff03821115610a4257610a416109c8565b5b828201905092915050565b6000610a588261063a565b91506000821415610a6c57610a6b6109c8565b5b60018203905091905056fea2646970667358221220a44c5f00bc612d7c3c6e23f9691ac0dd1d2583af5ae2fcc13aa695c5b4842e1764736f6c634300080a0033",
  "linkReferences": {},
  "deployedLinkReferences": {}
}